{
  "_format": "hh-sol-artifact-1",
  "contractName": "WETH9",
  "sourceName": "contracts/WETH9.sol",
  "abi": [
    {
      "anonymous": false,
      "inputs": [
        {
          "indexed": true,
          "internalType": "address",
          "name": "src",
          "type": "address"
        },
        {
          "indexed": true,
          "internalType": "address",
          "name": "guy",
          "type": "address"
        },
        {
          "indexed": false,
          "internalType": "uint256",
          "name": "wad",
          "type": "uint256"
        }
      ],
      "name": "Approval",
      "type": "event"
    },
    {
      "anonymous": false,
      "inputs": [
        {
          "indexed": true,
          "internalType": "address",
          "name": "dst",
          "type": "address"
        },
        {
          "indexed": false,
          "internalType": "uint256",
          "name": "wad",
          "type": "uint256"
        }
      ],
      "name": "Deposit",
      "type": "event"
    },
    {
      "anonymous": false,
      "inputs": [
        {
          "indexed": true,
          "internalType": "address",
          "name": "src",
          "type": "address"
        },
        {
          "indexed": true,
          "internalType": "address",
          "name": "dst",
          "type": "address"
        },
        {
          "indexed": false,
          "internalType": "uint256",
          "name": "wad",
          "type": "uint256"
        }
      ],
      "name": "Transfer",
      "type": "event"
    },
    {
      "anonymous": false,
      "inputs": [
        {
          "indexed": true,
          "internalType": "address",
          "name": "src",
          "type": "address"
        },
        {
          "indexed": false,
          "internalType": "uint256",
          "name": "wad",
          "type": "uint256"
        }
      ],
      "name": "Withdrawal",
      "type": "event"
    },
    {
      "inputs": [
        {
          "internalType": "address",
          "name": "",
          "type": "address"
        },
        {
          "internalType": "address",
          "name": "",
          "type": "address"
        }
      ],
      "name": "allowance",
      "outputs": [
        {
          "internalType": "uint256",
          "name": "",
          "type": "uint256"
        }
      ],
      "stateMutability": "view",
      "type": "function"
    },
    {
      "inputs": [
        {
          "internalType": "address",
          "name": "guy",
          "type": "address"
        },
        {
          "internalType": "uint256",
          "name": "wad",
          "type": "uint256"
        }
      ],
      "name": "approve",
      "outputs": [
        {
          "internalType": "bool",
          "name": "",
          "type": "bool"
        }
      ],
      "stateMutability": "nonpayable",
      "type": "function"
    },
    {
      "inputs": [
        {
          "internalType": "address",
          "name": "",
          "type": "address"
        }
      ],
      "name": "balanceOf",
      "outputs": [
        {
          "internalType": "uint256",
          "name": "",
          "type": "uint256"
        }
      ],
      "stateMutability": "view",
      "type": "function"
    },
    {
      "inputs": [],
      "name": "decimals",
      "outputs": [
        {
          "internalType": "uint8",
          "name": "",
          "type": "uint8"
        }
      ],
      "stateMutability": "view",
      "type": "function"
    },
    {
      "inputs": [
        {
          "internalType": "uint256",
          "name": "wad",
          "type": "uint256"
        }
      ],
      "name": "deposit",
      "outputs": [],
      "stateMutability": "payable",
      "type": "function"
    },
    {
      "inputs": [],
      "name": "name",
      "outputs": [
        {
          "internalType": "string",
          "name": "",
          "type": "string"
        }
      ],
      "stateMutability": "view",
      "type": "function"
    },
    {
      "inputs": [],
      "name": "symbol",
      "outputs": [
        {
          "internalType": "string",
          "name": "",
          "type": "string"
        }
      ],
      "stateMutability": "view",
      "type": "function"
    },
    {
      "inputs": [],
      "name": "totalSupply",
      "outputs": [
        {
          "internalType": "uint256",
          "name": "",
          "type": "uint256"
        }
      ],
      "stateMutability": "view",
      "type": "function"
    },
    {
      "inputs": [
        {
          "internalType": "address",
          "name": "to",
          "type": "address"
        },
        {
          "internalType": "uint256",
          "name": "tokens",
          "type": "uint256"
        }
      ],
      "name": "transfer",
      "outputs": [
        {
          "internalType": "bool",
          "name": "",
          "type": "bool"
        }
      ],
      "stateMutability": "nonpayable",
      "type": "function"
    },
    {
      "inputs": [
        {
          "internalType": "uint256",
          "name": "wad",
          "type": "uint256"
        }
      ],
      "name": "withdraw",
      "outputs": [],
      "stateMutability": "nonpayable",
      "type": "function"
    }
  ],
  "bytecode": "0x60c0604052600d60808190526c2bb930b83832b21022ba3432b960991b60a090815261002e916000919061007a565b50604080518082019091526004808252630ae8aa8960e31b602090920191825261005a9160019161007a565b506002805460ff1916601217905534801561007457600080fd5b5061014e565b82805461008690610113565b90600052602060002090601f0160209004810192826100a857600085556100ee565b82601f106100c157805160ff19168380011785556100ee565b828001600101855582156100ee579182015b828111156100ee5782518255916020019190600101906100d3565b506100fa9291506100fe565b5090565b5b808211156100fa57600081556001016100ff565b60028104600182168061012757607f821691505b6020821081141561014857634e487b7160e01b600052602260045260246000fd5b50919050565b6106dd8061015d6000396000f3fe6080604052600436106100915760003560e01c806370a082311161005957806370a082311461015457806395d89b4114610174578063a9059cbb14610189578063b6b55f25146101a9578063dd62ed3e146101bc57610091565b806306fdde0314610096578063095ea7b3146100c157806318160ddd146100ee5780632e1a7d4d14610110578063313ce56714610132575b600080fd5b3480156100a257600080fd5b506100ab6101dc565b6040516100b891906105bd565b60405180910390f35b3480156100cd57600080fd5b506100e16100dc366004610571565b61026a565b6040516100b891906105b2565b3480156100fa57600080fd5b506101036102d4565b6040516100b89190610610565b34801561011c57600080fd5b5061013061012b36600461059a565b610302565b005b34801561013e57600080fd5b506101476103b4565b6040516100b89190610619565b34801561016057600080fd5b5061010361016f36600461051e565b6103bd565b34801561018057600080fd5b506100ab6103cf565b34801561019557600080fd5b506100e16101a4366004610571565b6103dc565b6101306101b736600461059a565b61048f565b3480156101c857600080fd5b506101036101d736600461053f565b6104e5565b600080546101e990610656565b80601f016020809104026020016040519081016040528092919081815260200182805461021590610656565b80156102625780601f1061023757610100808354040283529160200191610262565b820191906000526020600020905b81548152906001019060200180831161024557829003601f168201915b505050505081565b3360008181526004602090815260408083206001600160a01b038716808552925280832085905551919290917f8c5be1e5ebec7d5bd14f71427d1e84f3dd0314c0f7b2291e5b200ac8c7c3b925906102c3908690610610565b60405180910390a350600192915050565b6000805260036020527f3617319a054d772f909f7c479a2cebe5066e836a939412e32403c99029b92eff5490565b3360009081526003602052604090205481111561031e57600080fd5b336000908152600360205260408120805483929061033d90849061063f565b9091555050604051339082156108fc029083906000818181858888f1935050505015801561036f573d6000803e3d6000fd5b50336001600160a01b03167f7fcf532c15f0a6db0bd6d0e038bea71d30d808c7d98cb3bf7268a95bf5081b65826040516103a99190610610565b60405180910390a250565b60025460ff1681565b60036020526000908152604090205481565b600180546101e990610656565b336000908152600360205260408120548211156103f857600080fd5b3360009081526003602052604090205461041390839061063f565b33600090815260036020526040808220929092556001600160a01b03851681522054610440908390610627565b6001600160a01b0384166000818152600360205260409081902092909255905133907fddf252ad1be2c89b69c2b068fc378daa952ba7f163c4a11628f55a4df523b3ef906102c3908690610610565b33600090815260036020526040812080548392906104ae908490610627565b909155505060405133907fe1fffcc4923d04b559f4d29a8bfc6cda04eb5b0d3c460751c2402c5c5cc9109c906103a9908490610610565b600460209081526000928352604080842090915290825290205481565b80356001600160a01b038116811461051957600080fd5b919050565b60006020828403121561052f578081fd5b61053882610502565b9392505050565b60008060408385031215610551578081fd5b61055a83610502565b915061056860208401610502565b90509250929050565b60008060408385031215610583578182fd5b61058c83610502565b946020939093013593505050565b6000602082840312156105ab578081fd5b5035919050565b901515815260200190565b6000602080835283518082850152825b818110156105e9578581018301518582016040015282016105cd565b818111156105fa5783604083870101525b50601f01601f1916929092016040019392505050565b90815260200190565b60ff91909116815260200190565b6000821982111561063a5761063a610691565b500190565b60008282101561065157610651610691565b500390565b60028104600182168061066a57607f821691505b6020821081141561068b57634e487b7160e01b600052602260045260246000fd5b50919050565b634e487b7160e01b600052601160045260246000fdfea2646970667358221220bb831d2ea3aa1fc692d8f545bd76f2924c403d33b9a0c905bf6a6c22b175590864736f6c63430008000033",
  "linkReferences": {},
  "deployedLinkReferences": {}
}